:020000040800F2
:1000000000800120FD9E0008F98B0008FB8B000892
:10001000FD8B0008FF8B0008018C00080000000029
:10002000000000000000000000000000038C000839
:10003000058C000800000000078C0008098C0008EF
:10004000459F0008459F0008459F0008459F000800
:10005000459F0008459F0008118C00081B8C000874
:10006000258C00082F8C0008459F0008459F00083C
:10007000459F0008459F0008459F0008459F0008D0
:10008000459F0008459F0008459F0008459F0008C0
:10009000459F0008459F0008459F0008398C0008CF
:1000A000459F0008459F0008459F0008459F0008A0
:1000B000459F0008459F0008459F0008459F000890
:1000C000459F0008459F0008459F0008459F000880
:1000D000459F0008518C0008459F0008459F000877
:1000E000459F0008459F0008459F0008459F000860
:1000F000459F0008459F0008459F0008459F000850
:10010000459F0008459F0008459F0008459F00083F
:10011000459F0008459F0008459F0008459F00082F
:10012000459F0008459F0008459F0008459F00081F
:1001300000000000000000000000000000000000BF
:1001400000000000000000000000000000000000AF
:10015000000000000000000000000000000000009F
:10016000000000000000000000000000000000008F
:10017000000000000000000000000000000000007F
:10018000000000000000000000000000000000006F
:10019000000000000000000000000000000000005F
:1001A000000000000000000000000000000000004F
:1001B000000000000000000000000000000000003F
:1001C000000000000000000000000000000000002F
:1001D000000000000000000000000000000000001F
:0401E0005FF8E0F1F3
:1001E80010B5054C237833B9044B13B10448AFF369
:1001F80000800123237010BDD009002000000000FA
:100208000415010808B5034B1BB103490348AFF3B4
:10021800008008BD00000000D40900200415010872
:100228008446481E70B54F2842D8DFE800F02828D9
:100238002828414141413F3F283F3F3F3F3F3F3F03
:100248003F3F3F3F3F412A2A2A2A2A2A2A2A283F73
:100258003F3F3F3F413F2A292841282A2A3F294139
:10026800413F3F3F28282828283F28283F28414148
:100278003F3F3F4141413F3F3F282A282A2ABAB100
:10028800B3B1DCE90540844212DA0026DCF81050EC
:1002980004EB840E05EB8E000134C0E90166CCF84E
:1002A800144005F82E10C0E9032370BD002AE8D1D8
:1002B800002070BD70B5C268864611786E2924D0BA
:1002C8003039CBB2092B2AD8002600206FF0004520
:1002D800144C06E01946EB1AA4FB03C3B0EBD30F8A
:1002E80010DC0132CEF80C20137800EB8000303B94
:1002F8005FFA83FCBCF1090F01EB4000EAD906B1B3
:10030800404270BD4FF0FF3070BD531CC360517840
:100318003039CAB2092A02D81A460126D5E7002080
:1003280070BD00BFCDCCCCCC10B5044629B9C3688C
:100338001A786AB15A1CC2601978682917D07629C8
:1003480006D12046FFF7B6FFE3681A785F2A01D086
:10035800002010BD01332046E360FFF7ABFFE368E0
:100368001A785F2AF4D101200344E36010BD2046C7
:10037800FFF7A0FFF3E700BF10B4C3680A46197877
:1003880052290DD04F2902D0104610BC70472021A9
:10039800C46A0334C4625C1CC460002310BC3FE719
:1003A800C46A1F210234C462F5E700BF002965D082
:1003B80070B506460C46A368012B03F1010336DC31
:1003C800D6F81C51B5F5806F31DC2278A360531E36
:1003D8004F2B2CD8DFE803F03030304B2B2B2C2C54
:1003E8003030303030303030303030303030302B0A
:1003F80030303030303030303030414130302B30D8
:100408003030302830303030302B2C3030303030F5
:1004180030303030303030302B2B30282828282B03
:100428003030303030303030E468002CC3D170BD0B
:100438002469002CBFD1FAE7E16801353046C6F8D7
:100448001C51FFF7B3FF30462169FFF7AFFFD6F81D
:100458001C31013BC6F81C3170BDE1680B78052BD7
:10046800EBD1D6F838310133C6F83831E5E7D6F89C
:100478004431E1680133C6F84431DEE7704700BF14
:10048800C3681A785F2A01D00120704710B55A1C3A
:10049800C2605A7804465F2A04D0FFF70BFFC043B6
:1004A800C00F10BD0233C360FFF704FF002809DB4B
:1004B800092809DDE3681A785F2A03D1013301208E
:1004C800E36010BD002010BD012010BD28B909E06F
:1004D800002908DD0069013940B103782F2BF7D0D6
:1004E800002070477047FBD1C0687047704700BF55
:1004F800F0B514465268A5684B1C1344AB420E462F
:10050800074683B011D8E5686DB96368206832463C
:100518001844394605F070FED4E9003233449D543E
:1005280063683344636003B0F0BDE268002AFAD11F
:1005380055B16D00AB42FCD8294620680BF08CFC05
:1005480038B12060A560DEE7022B4FF00205F0D835
:10055800F2E7019020680BF03BF80122019BC4E907
:100568000033C4E90232DEE70378722B07D0562B3A
:1005780005D04B2B03D0442B03D00020704701201B
:100588007047407800F0DF034F2BF8D07738012808
:100598008CBF00200120704770B50D46D0F80011BF
:1005A8000446FF2906D04B1CC4F80031655484F872
:1005B800045170BD0026D0E9423280F8FF609847A8
:1005C80001233146D4F82821C4F800311A44C4F86C
:1005D8002821655484F8045170BD00BF0346D0F843
:1005E800100190B1CB684268002B10690BDB20B971
:1005F80009E03BB10069013B30B102782F2AF8D0FD
:1006080000207047C068704770470122C3F818215E
:10061800704700BF002942D038B505460C462378FC
:100628004C2B32D8DFE803F02F31313131272F3707
:10063800373131313131313131313131313131319C
:100648002F31313131313131313131313131312F96
:10065800313131312F31313131312F373131313180
:100668003131313131313131312F2F3131312F2F7A
:100678002F31312F2F0021462846FFF7AFFF10B149
:1006880003782F2B00D0002038BD2846E168FFF7FB
:10069800C1FF0028F8D12469002CC0D1F3E700205D
:1006A800704700BF2DE9F041044608460D460BF09F
:1006B80043FE40B3013D4FF00008D4F800112F1855
:1006C80009E00B46BD4201F10101C4F80011E654EE
:1006D80084F8046117D0FF2915F8016FF1D1D4E926
:1006E8004232204684F8FF80984701210023D4F83D
:1006F8002821BD420A44C4F82821C4F80011E65450
:1007080084F80461E7D1BDE8F08100BF38B5C3685B
:100718001A78542A25D15A1CC2605A7804465F2A8E
:1007280021D06E2A1DD0FFF7C5FD421C19D4E368FD
:1007380019785F2915D10133E360D4E905318B427B
:100748000FDA00254FF0050E216903EB830C01EB4E
:100758008C000133C0E90155636101F82CE0C260E7
:1007680038BD002038BD02330022C360E5E700BF72
:100778002DE9F04188B00A4604461A4901A80BF051
:10078800B9FD01A80BF0D8FD40B301AD4FF000084A
:10079800D4F800112F1809E00B46AF4201F101010E
:1007A800C4F80011E65484F8046117D0FF2915F83D
:1007B800016BF1D1D4E94232204684F8FF80984792
:1007C80001210023D4F82821AF420A44C4F8282183
:1007D800C4F80011E65484F80461E7D108B0BDE814
:1007E800F08100BFE821010870B50446FFF762FDFB
:1007F800051E46DDE66863689B1B9D423EDCA268D9
:1008080073195207E36004D5725D242A04BF0133CB
:10081800E360092D22DD0822304629490BF0D4F97E
:1008280030B9337A2E2B2ED05F2B2CD0242B2AD004
:10083800D4E90532934221DA0022206903EB8301CF
:1008480000EB81000133C0E90122636100230370DA
:10085800C0E90365C0E90133A06270BDD4E905327F
:1008680093420BDA0022206903EB830100EB81003D
:100878000133C0E901226361002EE7D10020A062A4
:1008880070BD002070BD737A4E2BD1D1E26A6369C6
:10089800A1691632551B8B42E562EFDA03EB830040
:1008A80001336361152100232269064D860002EB9E
:1008B8008000C0E901339355C0E90351DFE700BF69
:1008C800EC210108F82101082DE9F843C3681A78DA
:1008D800532A31D15A1CC2605A780446A2B39A1CD2
:1008E800C2605A785F2A44D0A2F13000C3B2092B03
:1008F80026D800210DE0303B99421DD8E1680A78DE
:10090800481C1AB1E0600A785F2A3CD01946A2F167
:100918003000C0B201EBC1030928A2F1410C02EB7F
:100928008303E8D9BCF1190F06D801EBC10302EB28
:100938008303373B9942E1D900252846BDE8F8836F
:10094800A2F14103192BD4D9A36803F00803002BA3
:1009580014BF0125002500D1B9B9404B742103F11A
:10096800A80001E013F81C1F914215D08342F9D169
:10097800E2E70023226A9A42DED9E26952F823505C
:100988002846BDE8F8830133F4E7E3681B78433B66
:10099800012B98BF0D46E0E75E69002E56D0D4E9DA
:1009A80005208242D3F8188055DA4FF0000E4FF038
:1009B8001809276902EB820C07EB8C010132C1E9A7
:1009C80001EE626107F82C90C1E90368A162002D6D
:1009D80039D0D3E90371E36A90420B44E36238DD0E
:1009E80000264FF0180C236902EB820003EB800508
:1009F8000132C5E90166626103F820C0C5E90371E7
:100A0800E3681A78422A98D1A66A0133E36020463F
:100A1800FFF7EAFE2A4603464C212046FFF700FC72
:100A2800E36805461A78422AEFD0A662002883D0E8
:100A3800D4E908329342BFF67FAFE1695A1C41F806
:100A48002300226279E7D3E90171C4E7D4E90520DC
:100A5800BDE70025D4E70021B8E700BF201501084D
:100A68002DE9F8438F18B9424AD20C4605464FF093
:100A780000080CE0D5F80011FF2933D04B1CC5F84D
:100A880000316E5485F804610134A74238D93B1B04
:100A9800032B2678EEDD5F2EECD163785F2BE9D14E
:100AA800A378552BE6D1E21C9742E3D9002105E053
:100AB800A6F13703BA4203EB011123D0914612F88D
:100AC800016BA6F13003D8B20928A6F1410CF1D97F
:100AD800BCF1050FA6F16103EAD9052B14D8A6F1DC
:100AE8005703E7E7D5E94232284685F8FF8098475B
:100AF8000123D5F8282100211A44C5F82821BEE78A
:100B0800BDE8F8835F26B5E74F45FBD95F2EF9D1DD
:100B1800FF29AFD8CEB2D5F80011FF2907D04B1C5A
:100B2800C5F800314C466E5485F80461ACE7D5E948
:100B38004232284685F8FF809847D5F828310021A9
:100B48000133C5F82831EAE72DE9F043C2680446C5
:100B580083B01046FFF708FD00286ED11178A1F187
:100B680030034A2B64D8DFE813F0B900B900B900A4
:100B7800B900B900B900B900B900B900B9006300FB
:100B8800630063006300630063006300FF016300A8
:100B9800CE00440163003E01E1016300630063008D
:100BA800630063004102B900D301C5016300B701C6
:100BB8001A01F400DC006300630063006300B900FD
:100BC800630063006300630063006300980098009B
:100BD800980098009800980098009800980098004D
:100BE8006300980098009800980063006300630011
:100BF80098009800EF0198009800980098009800D5
:100C08000123256B2046236301F0FAFB2563024686
:100C1800002343212046FFF703FB0546019038B126
:100C2800E3681A7822B15A1CE2601B78452B5CD025
:100C38000025284603B0BDE8F0830022204601A91C
:100C480001F03AFE05460028F2D0E36820461B78FA
:100C5800462B1ED0FFF778FF28600028E8D00378DD
:100C68001F3B012B05D8019AC368C2602A6801920C
:100C78002B60019D002DDBD0D4E908329342D7DAEE
:100C88002846E1695A1C41F82350226203B0BDE8A6
:100C9800F08300F069FC2860DFE7B248613901EBB6
:100CA8008101636900EB8101A069834280F25A8364
:100CB800571C4FF0270C0022206903EB830600EB3A
:100CC80086050133C5E90122636100F826C0E36A9D
:100CD800E9604968E7600B44E362AAE7204600F050
:100CE80011FE05460190002DA2D0D4E908329342A6
:100CF8009EDAE1695A1C41F82350019D2262284678
:100D080003B0BDE8F0830132E2602046FFF71CFF24
:100D18000023024625212046FFF782FA0546019066
:100D2800E1E70132E2602046FFF75EFDE3680190EB
:100D38001A780546492A00F0B9822046FFF704FFD1
:100D480021210246019B2046FFF76AFA05460190D9
:100D5800C9E72046FFF7DAFCE668019033780546D4
:100D6800492BC0D1636B002B40F0C88200283FF4A8
:100D78005FAFD4E908218A42BFF65AAFE16941F86A
:100D88002200013222623278493A012A05D8013616
:100D98002046E66001F066FE03462A461CE05378CA
:100DA800A3F13002092A05D95F2B03D0413B192B47
:100DB80000F2978200212046FFF786FDE368019044
:100DC8001A780546492A7FF434AF0133E360204698
:100DD80001F048FE2A46034604212046FFF720FA80
:100DE800054601907FE7204600F0BEFB05460190CE
:100DF80079E7531CE3605378002B3FF419AF931C39
:100E0800E3605378463B302B3FF612AF01A151F80F
:100E180023F000BF25100008390C0008390C000821
:100E2800390C0008390C0008390C0008390C000886
:100E3800390C0008390C0008390C0008390C000876
:100E4800390C0008390C0008390C0008090C000896
:100E5800390C0008390C0008390C0008390C000856
:100E6800390C0008390C0008390C0008390C000846
:100E7800390C0008390C0008390C0008390C000836
:100E8800C5100008390C00089910000877110008EF
:100E98004711000817110008390C0008E71000086E
:100EA80095120008390C0008390C0008390C0008A4
:100EB800390C000867120008390C00084F120008A6
:100EC800390C0008390C00081F120008090C00082A
:100ED800EF110008951100080132E2602046FFF783
:100EE80033FE0023024623212046FFF799F90546E1
:100EF8000190F8E60132E2602046FFF725FE002364
:100F0800024622212046FFF78BF905460190EAE6C2
:100F18000132E2602046FFF717FE00230246242133
:100F28002046FFF77DF905460190DCE60132E260D4
:100F38002046FFF709FE0023024626212046FFF738
:100F48006FF905460190CEE60132E2602046FFF7D0
:100F58004BFC0023024628212046FFF761F905468D
:100F68000190C0E6E4150108511CE16053785F2B3D
:100F780000F09A81303B092B00F2A5810B461D46F3
:100F88000133E3601A78303A092AF8D9D4E9052000
:100F98008242A3EB010CBFF64BAE0020D4F810E060
:100FA80002EB82070EEB870601328445C6E9010091
:100FB8004FEA870762617FF73BAEC6E901000EF88A
:100FC8000700C6E9031C19466B785F2B7FF430AE27
:100FD8000131E1602046FFF7B7FD324603462A217A
:100FE8002046FFF71DF9054601907CE601322046B0
:100FF800E260FFF7A9FD054600283FF419AE204638
:10100800FFF7A2FD034600283FF412AE2A462B2123
:101018002046FFF705F90546019064E6D4E9053155
:101028008B4280F2A38100262C27216903EB8300E1
:1010380001EB8005C5E9016601336361019501F89B
:1010480020709378303BDBB2092B94BF01233346E1
:101058002B8203D82046FFF72DF9019D2046FFF784
:1010680073FD019BE860DB68002B3FF4E1AD20468F
:10107800FFF720F9E268137813B1531CE360137883
:10108800A3F17303B3FA83F3019D5B096B82D0E587
:10109800D4E905329342BFF6CBAD03EB83050133A8
:1010A80063610E2100232269B248AE0002EB850578
:1010B800C5E901339355C5E90301BAE5D4E9053219
:1010C8009342BFF6B5AD226903EB83050133AE0049
:1010D800636104210023A84802EB8505E8E7D4E909
:1010E8000532934280F23E8100202727226903EBD4
:1010F800830102EB81050133C5E90100636102F850
:101108002170E36A9D4E0433EE60E36291E5D4E911
:101118000532934280F2268100202727226903EBBB
:101128008301974E013302EB8105C5E90100636134
:1011380002F82170E36AEE600933E36279E5D4E9E5
:101148000532934280F20E8100202727226903EBA3
:10115800830102EB81050133C5E90100636102F8EF
:101168002170E36A874E0A33EE60E36261E5D4E9F1
:101178000532934280F2F680226903EB8301002056
:101188002727814E013302EB8105CEE793785F2B49
:1011980000F0DA80D4E905329342BFF649AD002663
:1011A8004227226903EB830102EB81050133C5E97C
:1011B80001662046636102F82170FFF77BF8E8605A
:1011C800E3681A785F2A7FF433AD0133E360204681
:1011D800FFF7BAFC2A4603462D212046FFF720F8E0
:1011E800054601907FE5D4E90532934280F2BA8042
:1011F80000202727226903EB830102EB81050133D5
:10120800C5E90100636102F82170E36A5F4E0733A4
:10121800EE60E3620DE5D4E90532934280F2A280E4
:1012280000202727226903EB8301594E013302EB83
:101238008105C5E90100636102F82170E36AEE6087
:101248000833E362F5E42046FFF77EFC00230246FC
:101258004B212046FEF7E4FF0546019043E5D4E91B
:10126800053293427EDA00202727226903EB8301A7
:1012780002EB81050133C5E90100636102F82170C1
:10128800E36A444E1133EE60E362D2E4D4E90532F6
:10129800934267DA226903EB8301002027273E4E39
:1012A800013302EB8105C4E7002691E60133E360D0
:1012B800204601F0D7FB2A46034604212046FEF7C4
:1012C800AFFF019039E50123256B2046236301F028
:1012D80097F82563064600283FF4AAACE1680B7826
:1012E80073E6204600F00EFB0546019000283FF407
:1012F8009FAC0378182B7FF4F8AC9AE4731CE36076
:101308002046D4F81490D4F82080E76A01F0AAFBAC
:10131800E3681B78492B07D0019DE660C4F8149058
:10132800C4F82080E762DEE4019A002A3FF480AC2A
:10133800D4E908139942BFF67BACE569034645F842
:1013480021200131216247E501230332256B204624
:10135800E260236301F054F82563054600287FF412
:101368002FAF65E400230193DB68FFDE00231B70C9
:10137800FFDE00BF18220108102201082818010802
:10138800EC17010814180108001801083C18010896
:10139800501801087818010864180108F8B5C368DE
:1013A80006461F7877BB4FF0000E452100223C4DC2
:1013B8008B1A03EBD37302EB630318012C5805EB6C
:1013C800031C2078B84206D08CBF19465A1C8A42A2
:1013D800EED10020F8BD60787045F5D1D6E9053228
:1013E8009342F6DA00243225326903EB830102EBDB
:1013F80081000133C0E90144736102F82150C0F84B
:101408000CC0F8BD5A1CC26093F801E01F78BEF109
:10141800000F02D1762FC8D0C5E79A1CC260762F7C
:1014280093F801E01FD1AEF13004E3B2092BBCD828
:10143800FFF7DAF9D6E905318B420246C9DA00210D
:10144800356903EB83008700013305EB8000C0E9B1
:1014580001117361002ABCD03323C0E90111EB5597
:10146800C0E90342F8BD632F9FD1BEF1760F9CD12E
:10147800D0E90C34B3FA83F35B094363FFF764FBE9
:10148800736B024633B1002335213046FEF7C8FEA0
:101498007463F8BD34213046FEF7C2FEF8E700BF9A
:1014A8008C180108002330B5C26883B00193137803
:1014B80023B3044601AD12E04F2B16D02046FFF7A8
:1014C80043FB0246D0B100232E212046FEF7A8FE9A
:1014D800286098B1E26800F11005137843B1452BF4
:1014E80006D02E2B04D0522BE6D15378452BE5D1CC
:1014F800019818B1036923B103B030BD002003B0CF
:1015080030BDC26811782729F6D1D268117C092923
:10151800F2D1E16A5268891AE162C360ECE700BF60
:1015280070B5C36805461A784A2A1AD081B1284688
:10153800FFF70AFB044690B12846FFF7B3FF0346BE
:1015480068B122462846BDE870402921FEF768BEEA
:1015580028460C46FFF7A6FF03460028F1D10020D5
:1015680070BD0133C360E2E710B50446806810F42B
:1015780080200BD1A26BB2F5006F06D8511CE3682E
:10158800A1631978462907D0A26310BDE3681A78C9
:10159800462A01D0002010BD5A1CE2605A78012169
:1015A800592A04BF0233E3602046FFF7B9FF01461A
:1015B8002046FEF7E1FEE3681A78452A04BF0133A6
:1015C800E360A36818BF00205B03DED4A26B013A76
:1015D800DAE700BFF8B5C36804461A78A2F130010B
:1015E800092961D9A2F16101192914D86F2A04D1F6
:1015F8005A786E2A04BF0233C3602046FFF7CEFE36
:10160800054610B10378322B69D0E368197842296E
:1016180051D02846F8BDA2F14301012940F28B8040
:101628004C2A79D0552A40F083805A786C2A00F0E9
:10163800D580742A7CD15A1CC2605978742940F02C
:1016480098809A1CC2609A785F2A00F047816E2AB7
:101658006ED0FEF72FFE461CE36800F1288119784A
:101668005F2977D10133E360D4E90532934280F2F0
:101678001D8100214827226903EB830002EB8005C6
:101688000133C5E90111636102F82070226A636AB7
:10169800EE609A4280F22681E069E368511C40F8C6
:1016A800225021621978B2E7FFF79EF8E3680546F1
:1016B80019784229ADD1A66A0133E3602046FFF7C5
:1016C80093F82A4603464C212046FEF7A9FDE36815
:1016D800054619784229EFD02846A662F8BDC268A7
:1016E800E36A9168073312680B44E36213786C2B42
:1016F8008BD15378692B88D19378002B85D12046DC
:10170800FFF772F82A46034637212046FEF788FD80
:10171800E368054619787AE70133C360FFF764F890
:10172800054628B12046FEF7ABFE00287FF46DAFD2
:1017380000252846F8BD866A86B1317861B93169D5
:10174800E26A0A44E262197843290A4600F087806F
:10175800442905D000255AE71829F0D0432A7ED01D
:1017680059783039052936D8DFE801F0062C2935B3
:10177800322F134600254AE74FF0010ED4E9052120
:1017880003F1020C8A42C4F80CC080F2A380002046
:10179800276902EB820107EB81050132C5E90100E7
:1017A80089006261002E00F095800822C5E90100D9
:1017B8007A5485F80CE02E619978634627E74FF054
:1017C800030EDBE74FF0020ED8E74FF0050ED5E722
:1017D8004FF0040ED2E71146002518E75A1CC260E4
:1017E80059786C29C5D10233C360FFF75BFEE36803
:1017F800064600285BD019784529ABD15A1CE2600F
:101808005A785F2A76D06E2A92D02046FEF752FD8B
:101818000130E3684BD419785F299BD10133E36029
:10182800D4E905218A4242DA00214FF0460E2769A1
:1018380002EB820C07EB8C050132C5E901116261EC
:1018480007F82CE0C5E90360D4E9082082422EDAC3
:10185800E16941F82250013222621978D7E65A78B4
:10186800492A27D0A2F1310104293FF661AF303A65
:101878000233D7B2E360D4E90532934216DA002185
:10188800226903EB830002EB80050133C5E90111EE
:101898004FEA800C63614EB30723C5E9011102F8D2
:1018A8000C30E3682F732E611978B0E6E3680025E1
:1018B8001978ACE6581CE0609A78A2F13101042945
:1018C8001CD80333303A2046E360D7B2FFF73CF91F
:1018D800A66AD0E799780025634698E60333002680
:1018E800C360C1E6E3680D46197890E6E3683546BB
:1018F80019788CE602330020E36091E759780025D7
:10190800034684E62DE9F047C2680446137884B09C
:101918004E3B0C2B08D8DFE803F031070707071701
:101928000713070707078600FFF754FEE368054615
:101938001A78492A00F0CB80284604B0BDE8F08721
:1019480004B0BDE8F04745E65378742B00F0D18029
:101958000021FEF7B9FFE36805461A78492AEBD15A
:101968000133E360204601F07DF803462A4604214E
:10197800204604B0BDE8F047FEF752BC531CC360D4
:10198800012203A900F098FF0746002800F0E9802B
:1019980000212046FEF7F0FCE2688046167836B350
:1019A8004FF0000ADFF8B892442E00F0DF80A6F16D
:1019B8003003DBB21C2B40F21D81A6F16103192B09
:1019C80000F21A812046FFF705FE0546BAF1000F1E
:1019D80006D001212B4652462046FEF721FC05463B
:1019E800532E0ED1AA46E2681678002EDCD10023C9
:1019F8001D463B60A0E7FFF7A7F80546BAF1000FC0
:101A0800E7D1E2681678452E00F0BF80002DEED0B1
:101A1800D4E908318B42EADAE169AA4641F8235051
:101A280001332362E0E7531CC3605378472B02D08D
:101A3800542B40F0B880204600F0D2F90546002D1E
:101A480000F08F80E3681A78452A40F08A805A1C93
:101A5800E2605A78732A00F00781642A00F0A880AF
:101A68002046FFF74FFF034628B30278462A22D0C4
:101A7800482A20D04FF0FF3620460193FEF700FD9C
:101A8800019B00286DD0721C15D09C46D4E9052313
:101A98009A4280F2188100274FF0470E216902EB25
:101AA800820001EB80030132C3E90177626101F82A
:101AB80020E0C3E903C62A78032A05D12A691178E8
:101AC800292904BF0021D1602A46022150E70028B5
:101AD80047D0D4E908218A4243DAE16941F8220073
:101AE800013222621A78493A012A7FF639AF002377
:101AF8003CE70232D0E905318B42C26080F2D180E6
:101B080003EB830501334361032100230269554830
:101B1800AE0002EB8505C5E901339355C5E903011C
:101B28002046FFF757FD2A46034601212046FEF7C7
:101B380077FBE26AE3680332E2621A780546492ACB
:101B48007FF4FAAE68B1D4E908218A4209DAE1697A
:101B580041F82200013222621A78493A012AC6D88D
:101B6800FEE60025284604B0BDE8F08753782046F5
:101B780003F0DF03542B3FF43EAFFFF72BFD054680
:101B8800BAF1000F7FF425AF3BE7152329FA03F3D9
:101B9800D90740D52046FFF71DFD15B1AA460546D1
:101BA80017E705462DE7002100F09CF8054646E7B3
:101BB8009A1CE2609A785F2A00F081806E2AD0D061
:101BC8002046FEF777FB461CCBD4E3681A785F2AD9
:101BD800C7D10133E3602046FFF794FE034600288F
:101BE8003FF453AF1A78462A3FF44FAF482A3FF4E0
:101BF8004CAF41E75546C9E7552E2FD0532E09D192
:101C080001212046FEF760FE0546BAF1000F7FF479
:101C1800E0AEE7E65546492E45D0542E55D0452E20
:101C280009D04D2E7FF4E3AE002D3FF4E0AE013233
:101C3800AA46E260D8E63D60002D92D0B8F1000FC8
:101C480004D0039BCDF80C80C8F80C30E3681A78F0
:101C5800452A86D10133039DE3606DE6554699E731
:101C6800FF0308103822010802332046E360FEF71C
:101C780007FC00283FF475AFD4E905239A4222DA1D
:101C880002EB8203013262610E2000222169144EA8
:101C98009F0001EB8303C3E90122CA55C3E903602E
:101CA80009E700253CE7002D3FF4A1AE01322046AC
:101CB800E26000F0D7FEAA46042105468AE603330F
:101CC8000026E36087E70023F5E62046AA46FEF7EC
:101CD8001DFD0546BAF1000F7FF47BAE91E600BF0B
:101CE8002822010870B505460E46FFF70BFE0028AE
:101CF80049D00446EEB1AB68DB071AD423784D2BE4
:101D0800A3F11C01A3F14F0235D032D8042932D9EE
:101D1800022B0CD12369002B35D01A784D2AA2F159
:101D28001C00A2F14F012AD027D8042827D9204621
:101D380070BDEB681B78002BF9D0452BF7D02146F6
:101D48000B78042B32D026D8022B22D1096900291E
:101D5800F6D12846FFF7E4FB0346A0B116B922786E
:101D6800022A37D022462846BDE870400321FEF7F4
:101D780057BA012ADBD8E468C0E70129D7D8DB685D
:101D88002361002BC9D10024204670BD1C3B042BC5
:101D980008D90021DDE74D2BA3F14F0202D0F5D978
:101DA800012AF6D8C9680029CAD1D2E7CB685BB145
:101DB8001978082901F1FF3208D80629E9D8012A3B
:101DC80002D81B69002BF3D10121C2E7353918BFAE
:101DD8000121BEE70278292A08BFC660C2E700BF12
:101DE8002DE9F041C16AC36801F11402C2621A7890
:101DF8000446542A78D0472A28D15A1CC2605A78F7
:101E080022B39A1CC2605A78562A22D8402A1DD971
:101E1800413A152A1AD8DFE812F0270119001900EB
:101E280019001900190019001900190019001900E2
:101E380019001900190019001900190005011900E5
:101E4800EB001900E100E3680233E3600020BDE81D
:101E5800F081722AFAD1FEF72DFA0128F6DDE3683F
:101E68001A78002AF2D05E1CE6601B785F2BEDD151
:101E780000224FF041081746451E3378002BE5D065
:101E8800242B40F0E6817378532B00F007825F2BF8
:101E980000F00282242BD9D11946D4E905039842CF
:101EA800D1DA266900EB800C06EB8C030130C3E91C
:101EB8000177606106F82C80E668D9600236023D39
:101EC800E660002A00F0E68140212046FEF7A8F9E6
:101ED80002460028BAD0002DCFDC2046BDE8F041EC
:101EE80000233F21FEF79CB95A1CC2605A78002A89
:101EF800ACD09A1CC2605B78413B352BA6D801A2B6
:101F080052F823F0BD200008551E0008D120000813
:101F1800551E0008551E00080D210008551E000812
:101F280089210008332200081F220008551E0008D6
:101F3800551E0008551E0008551E0008551E0008AD
:101F4800551E0008551E0008551E000847220008A7
:101F58009D210008551E0008B5210008CD21000864
:101F6800551E0008551E0008551E0008551E00087D
:101F7800551E0008551E0008551E0008551E00086D
:101F8800551E0008551E0008551E0008E1210008CE
:101F9800551E0008551E0008551E0008551E00084D
:101FA80021210008551E0008551E0008551E00086E
:101FB800551E0008551E0008551E0008551E00082D
:101FC800551E0008551E0008551E0008551E00081D
:101FD800551E0008551E000855210008FFF792FC01
:101FE8000023024613212046BDE8F041FEF718B948
:101FF8009A78002A00F05481DA1CC2609A78DB785B
:102008006E2A46D0472B02D0542B40F049812046F7
:10201800FFF7E6FE02462046BDE8F04100234921CD
:10202800FEF7FEB8FFF76EFCD4E9051291420646AA
:1020380080F2408100234FF0420C226901EB8107B6
:1020480002EB87050131C5E901332046616102F8D9
:1020580027C0FEF72FF9E8602B4632462046BDE838
:10206800F0411621FEF7DCB89B78472B01D0542BA2
:102078000AD12046FFF7B4FE02462046BDE8F041EB
:1020880000231721FEF7CCB80021FFF72BFE0246EC
:10209800F3E7472B00F01A81542B00F01781002139
:1020A800FFF720FE02462046BDE8F04100234A2102
:1020B800FEF7B6B800F0ACFC0023024630212046FB
:1020C800BDE8F041FEF7ACB8FEF73EFD05462046F8
:1020D800FEF7F0F80028FFF6B9AEE3681A785F2A31
:1020E8007FF4B4AE0133E3602046FEF72DFDE16ACC
:1020F8000246481DE0622B462046BDE8F0410B2110
:10210800FEF78EB8FEF720FD002302460E2120467A
:10211800BDE8F041FEF784B86821FEF705F900280C
:102128003FF494AEE3681B78472B00F0C580542B2E
:1021380000F0C28000212046FFF7D4FD0246204669
:10214800BDE8F04100230F21FEF76AB87621FEF7BB
:10215800EBF800283FF47AAEE3681B78472B00F0D1
:10216800B080542B00F0AD8000212046FFF7BAFD67
:1021780002462046BDE8F04100231021FEF750B882
:10218800FFF7C0FB0023024614212046BDE8F041BA
:10219800FEF746B80A31C162FEF7D6FC00230246B4
:1021A8000A212046BDE8F041FEF73AB80F31C16276
:1021B800FEF7CAFC0023024609212046BDE8F0418B
:1021C800FEF72EB8FFF79EFB002302461521204696
:1021D800BDE8F041FEF724B80021FEF7A5F8002875
:1021E8003FF434AE00212046FEF79EF800283FF465
:1021F8002DAEE3681B78472B6DD0542B6BD0002194
:102208002046FFF76FFD02462046BDE8F041002357
:102218001121FEF705B8FEF797FC002302461221AC
:102228002046BDE8F041FDF7FBBFFEF78DFC00231B
:1022380002460C212046BDE8F041FDF7F1BFFEF74C
:1022480083FC002302460D212046BDE8F041FDF73E
:10225800E7BFB446002104E01CF8013F23B1242B5A
:1022680002D00131A942F7DBD4E9053083421DDAF7
:10227800206903EB830C0133636100EB8C03C3E932
:10228800017700F82C70C3E90361E6686D1A0E4403
:10229800E66016E61A461EE62E21FEE52F21FCE52D
:1022A80000212046FFF71EFD0246B4E6E3680B4412
:1022B800E360CBE50025CFE62046FFF791FD024617
:1022C8003DE72046FFF78CFD024652E72046FFF720
:1022D80087FD0246E7E62046FFF782FD024693E7C0
:1022E800F8B5C26813784C2B32D1531CC3605178AF
:1022F80004465F2951D05A2913D15A1CE2605B78F1
:10230800472B43D0542B41D000212046FFF7EAFC4D
:102318000646E3681A78452A1AD101333046E36045
:10232800F8BDFEF711FC064690B10378272B12D0B2
:10233800E26815786E2D23D03D21452D59D01346DE
:1023480003E0E3601D78452D2FD00133002DF8D12F
:1023580000263046F8BDC3681A7C1AB1E26A59688B
:10236800521AE2622549186803F0BCFF0028DFD141
:10237800E2681578452D3ED06E2D01D03D21DEE76F
:10238800531CE36055783E211A46D6E72046FFF7EE
:1023980027FDE36806461A78BDE7931CC360927868
:1023A8005A2A18BF0026B6D1A7E79D1AD4E9050313
:1023B80098421CDA0027D4F810E000EB800C0EEBF2
:1023C8008C030130BD42C3E901774FEA8C0C606190
:1023D8000DDDC3E901770EF80C70C3E90325324619
:1023E8002046FDF71DFFE36806461A7893E70023A9
:1023F800F5E70025DAE70132E260AAE73C220108A6
:10240800C26813784C2B00F0A480542B00F0A280F3
:10241800732B2DE9F041044665D0662B33D0A3F128
:10242800300109290ED82046FFF7D4F805460028C0
:1024380000F08B80E3681A78492A00F08D802846DE
:10244800BDE8F0816F2B5FD0692B40F09280537804
:102458006C2B00F0B1802046FEF7A0FF054600284F
:1024680073D00378322B55D0342B00F0A9816CD867
:10247800332B6AD1C368032B67D8DFE813F0E60073
:10248800EE00660066005378702BE4D1931CC3609D
:102498009378542B00F03A815F2B00F0B6806E2BB6
:1024A80053D0FDF707FF411C4FD4E3681A785F2A21
:1024B8004BD16FF0004201339142E36045D00230C6
:1024C800D4E90532934240DA00260627226903EB55
:1024D800830102EB81050133C5E90166636102F8F6
:1024E8002170E860ABE75378722B50D0702BB2D1D3
:1024F8000232C260FFF784FF002302464B212046C8
:10250800BDE8F041FDF78CBE53786E2BA3D10232A3
:10251800C26088E7C168E36A8A680E68023A1344B1
:10252800E3623378732B5CD17278742A59D1B2780C
:10253800002A56D12046FEF707FB03462A462046C6
:10254800BDE8F0413721FDF76BBE00252846BDE800
:10255800F081C5E6FEF7DAB80133E360204600F003
:1025680081FA2A46034604212046BDE8F041FDF7DA
:1025780057BE742B7FF46FAF53786C2B7FF46BAF1F
:102588000232E260FEF7E0FAE268054617E002323E
:10259800C260FEF7D9FA05462046FFF71BF8E36844
:1025A80006461A78492A23D003462A462046BDE81B
:1025B800F0410121FDF734BE00250232E2601178B6
:1025C8000029C2D05378002BBFD04521204600F007
:1025D80039F92A46034631212046BDE8F041FDF786
:1025E8001FBECF68032FB0D8DFE807F02F13663C73
:1025F8000133E360204600F035FA324603460421F1
:102608002046FDF70DFE0346CFE703320120E260C6
:1026180056E73278702A00F082806D2A7FD0002732
:10262800732B77D17378502B74D1B378002B71D179
:10263800204600F017FA0346002F3FF47FAF1A46F2
:1026480039212046FDF7ECFD77E72A462046BDE80C
:10265800F04100233621FDF7E3BD2046FFF7D0FE09
:1026680003466BE7712B68D17378752B65D1B37806
:10267800002B62D12046FFF7C3FE06462046FFF72F
:10268800BFFE07462046FFF7BBFE034600283FF47F
:102698005CAF3A463C212046FDF7C2FD3246034670
:1026A8003B212046FDF7BCFD2A4603463A21204639
:1026B800BDE8F041FDF7B4BDEB681B685A78632AA2
:1026C80000F092803378662B00F09C802046FFF75C
:1026D80097FE07463378632B56D172786C2A53D10C
:1026E800B278002A50D14521204600F0ABF80646C2
:1026F80033463A4639212046FDF792FD2A460346DD
:1027080038212046BDE8F041FDF78ABD033200209C
:10271800E260D5E62046FFF773FE03468CE7717842
:1027280091427FF47CAFE26811785F297FF478AF3B
:102738000132E2600027337872E73378662B6DD078
:102748006E2B7FF402AF7378772B02D0612B7FF466
:10275800FCAE5F21204600F075F806462046FEF7DD
:10276800F3F9E36807461A78452A67D0702A59D0E2
:10277800692A7FF4EAAE5B786C2B7FF4E6AE2046DC
:10278800FFF73EFE034684E7642B26D17278742A4D
:1027980023D1B2780ABB2046FEF71CFFE368064641
:1027A8001A78492AA4D10133E360204600F05AF987
:1027B8003246034604212046FDF732FD064697E7D8
:1027C800E3681A785F2A7FF448AF0133E360452154
:1027D800204600F037F80346B0E6702B17D02046A5
:1027E800FFF70EFE064683E71B78A3F16302012A72
:1027F80003D9723B012B3FF665AF2046FEF7A4F9DB
:10280800074667E72046FEF7C9FD074662E7737883
:10281800742BE4D1B378002BBDD0E0E72046FEF757
:10282800BDFD2AE75A78692A7FF48FAE0233E36048
:102838004521204600F006F803462AE70133E36005
:10284800002326E72DE9F0410E460023C26882B036
:1028580011780446B142019324D0012701AD0CE060
:1028680000232E212046FDF7DBFC286000F110052F
:1028780070B1E3681A78B2420ED0D4F8308020469E
:102888002763FFF7BDFDC4F8308002460028E7D172
:10289800002002B0BDE8F08101980133E36002B086
:1028A800BDE8F081511CC1601A462E2102B0BDE876
:1028B800F041FDF7B5BC00BF2DE9F04FB2F10009BA
:1028C800C2680F460D464FF0010B044615BF4FF086
:1028D8001E0A4FF01B0A4FF01D084FF01A0814BFCC
:1028E8001C261926117883B01BE0562934D04B29B1
:1028F80039D053785BB3931CE3605178782952D070
:102908006F2936D1E36A4F210933E362002300229D
:102918002046FDF785FC2860C8B1E26800F10C0587
:1029280011781046FDF720FE002842D0531C72296A
:10293800E360DAD1E36A314603F10902E262002377
:1029480000222046FDF76CFC28600028E5D1002510
:10295800284603B0BDE8F08FE36A414603F1090257
:10296800E2620023D3E7E36A51469A1DE26200233C
:10297800CDE74F2939D1E36A20460933E362236B57
:10298800C4F830B001910093FFF73AFD009B01991C
:10299800236303460028DAD0E26810784528D6D1A8
:1029A8000132E260B3E7E36A4D211133E3620023A9
:1029B800ADE7B9F1000FCBD14629C9D1BD42C7D087
:1029C8001D201E211C2204E0192B0CD00C37BD42FF
:1029D800BED03F683B781A2B03D01B2BF4D139703B
:1029E800F4E73870F2E73A70F0E77729AFD1E36A95
:1029F80020460633E362FEF755FD03460028A6D0BD
:102A0800E26811784529A2D101325021E2607EE7BF
:102A180038B5C26813784C2B1FD0044607D8493BF9
:102A2800012B15D8BDE838400132C2601AE0582B96
:102A38000ED101231A44056BC2600363FFF7E0FC63
:102A4800E36825631A78452A0AD10133E36038BD63
:102A58002046BDE83840FEF777B8BDE838403FE487
:102A6800002038BD70B5C26804461378866A452BC5
:102A780082B04FF000031ED001AD01930CE000239B
:102A88002F212046FDF7CCFB286000F1100548B146
:102A9800E3681A78452A08D02046FFF7B9FF0246AE
:102AA8000028ECD1002002B070BD01980133E3602A
:102AB800A66202B070BD0132C2602F211A4602B070
:102AC800BDE87040FDF7ACBB2DE9F04F044693B06C
:102AD800002A5CD0D0F81851002D5BD11378164627
:102AE800502B54D8DFE813F0BF09050105018B010D
:102AF8001607930751066001B4027D0256022F02A1
:102B0800FC04D504AE0473044C0437031003E90233
:102B1800EF06C806A1067A06B80580008000800086
:102B28005900590059005900590059005900AD0081
:102B3800AD005900590093097800C3025C0596005E
:102B480050079600D000D00064011809EE08C708A5
:102B58005300A00865093D09EC055300EF01530037
:102B6800530030013001BF072A02230570082208EC
:102B7800E6076C09490853002504FE03D7038903B7
:102B88005E035900310559005900C4F81421012386
:102B9800C4F8183113B0BDE8F08F00220023049365
:102BA800D4F8143103960293D4F81031059302AB8C
:102BB800C4F81431002A65D01121204602F03CF8EF
:102BC800049B002B01F0FA82029BC4F81431002DFB
:102BD800E0D0C4F81071DDE711212046F26813B087
:102BE800BDE8F04F02F028B8D0F814E1BEF1000FAC
:102BF8003DD07246916849B950680078A0F1190C27
:102C0800BCF1020F01F20C858342E5D01268002A5C
:102C1800F0D12CE00023D0E9442102A8CDE9021626
:102C2800C4F814010592112120463269049302F078
:102C380003F8049B002B01F0DA84029BC4F81431DA
:102C4800A8E7D0F82051F168002D41F0B5830B7842
:102C5800052B01F0FB85232B01F0068332789A427D
:102C680001F00283242B01F06F86D4F814E102AB43
:102C7800C4F814310023D4F81021CDF808E0CDE9C8
:102C880004320396F26897E7F26812B1112101F055
:102C9800D3FF3369002B3FF47DAFD4F80051FD2DED
:102CA80001F2C184DFF84C832C274FF00009294634
:102CB80008F1010A0BE00B460131D045C4F80011B8
:102CC800E75484F8047101F0808218F8017FFF2925
:102CD800F1D1D4F808312046D4F80C2184F8FF90BB
:102CE8009847D4F8283101210133C4F8283100234A
:102CF800E3E7C14D1121F26801F09EFF3A274FF03A
:102D08000009D4F8001105F101080BE00B46013168
:102D1800A845C4F80011E75484F8047101F08F81C4
:102D280015F8017FFF29F1D1D4F808312046D4F8ED
:102D38000C2184F8FF909847D4F8283101210133F9
:102D4800C4F828310023E3E7F2681178272941F015
:102D58008083D1680D7C062D01F28B82002D41F015
:102D68005085D4F80011FF2901F03A854B1CC4F8AE
:102D78000031282320466354112184F8043101F0DE
:102D88005BFFD4F80011FF2901F01A854B1CC4F829
:102D980000312923635484F8043133783E2B01F041
:102DA8000985082D01F0FA8411212046326916E7B9
:102DB800924F74254FF00008D0F8001107F11D0953
:102DC8000BE00B460131B945C4F80011E55484F80D
:102DD80004513FF401AF17F8015FFF29F1D1D4F88E
:102DE80008312046D4F80C2184F8FF809847D4F89D
:102DF800283101210133C4F828310023E3E70023F7
:102E0800D6F80C90D0F81471C0F81431B9F1000F4D
:102E18003FF4BDAE0DF10808D0F810C1424618467F
:102E28009A46C2E90039C2E902AC99F80010134683
:102E38004D29A1F11C0BA1F14F0E00F1010501F084
:102E4800EF8101F25A80BBF1040F41F2E9810229B6
:102E5800C4F8142116D1D9F8109099F80010472910
:102E680001F018864FF0000A08EB00104D29A1F177
:102E78004F03A1F11C0201F0988301F29383042A05
:102E880041F29383042904BFCDE900C9C4F810D1E5
:102E980011212046326901F0CFFE99F80030042B49
:102EA80002D1009BC4F810314FF0200908EB05153A
:102EB80055F8086C002E01F09F81103D4545F7D16B
:102EC800C4F8147166E633691A783B2A7FF45FAE5A
:102ED8001B691B783C2B7FF45AAE3246112102F055
:102EE800EDFF00287FF456AED6E90383D3E90363E8
:102EF800D3E90375D8F80C204149106803F0F2F9BA
:102F0800002841F0098632461121204602F068FF68
:102F180042461121204602F081FD112120463A4601
:102F280002F05EFF20463749FDF7BCFB2A46112117
:102F3800204613B0BDE8F04F02F052BF1121F268ED
:102F480001F07AFE30E7304F63254FF00008D0F8E3
:102F5800001107F117090BE00B460131B945C4F818
:102F68000011E55484F8045100F0CF8717F8015F89
:102F7800FF29F1D1D4F808312046D4F80C2184F87F
:102F8800FF809847D4F8283101210133C4F828314B
:102F98000023E3E71D4F56254FF00008D0F8001135
:102FA80007F107090BE00B460131B945C4F80011D8
:102FB800E55484F804513FF40FAE17F8015FFF2978
:102FC800F1D1D4F808312046D4F80C2184F8FF80D8
:102FD8009847D4F8283101210133C4F82831002357
:102FE800E3E70B4F76254FF00008D0F8001107F102
:102FF8000A091BE0F8230108582201087822010871
:10300800182401081C240108B0220108A422010880
:10301800982201080B460131B945C4F80011E5545E
:1030280084F804513FF4D8AD17F8015FFF29F1D1B6
:10303800D4F808312046D4F80C2184F8FF8098474A
:10304800D4F8283101210133C4F828310023E3E7FB
:10305800D0F80031FF2B01F06383591C7E22C4F89D
:1030680000112046E254112184F804219EE6F268FA
:10307800CAB10023D0F814110493029102A9C0F830
:103088001411D0F8101103960591112101F0D4FD07
:10309800029A049BC4F81421002B7FF47BAD2021F5
:1030A8002046FDF779FA324611212046D4F814312A
:1030B80013B0BDE8F04F02F00FB9C94F67254FF0C4
:1030C8000008D0F8001107F112090BE00B46013196
:1030D8004F45C4F80011E55484F804513FF47CAD21
:1030E80017F8015FFF29F1D1D4F808312046D4F848
:1030F8000C2184F8FF809847D4F828310121013346
:10310800C4F828310023E3E7B64F6A254FF00008DA
:10311800D0F8001107F10E090BE00B460131B94553
:10312800C4F80011E55484F804513FF455AD17F87C
:10313800015FFF29F1D1D4F808312046D4F80C21D9
:1031480084F8FF809847D4F8283101210133C4F866
:1031580028310023E3E7A44F63254FF00008D0F897
:10316800001107F119090BE00B4601314F45C4F86E
:103178000011E55484F804513FF42EAD17F8015FAF
:10318800FF29F1D1D4F808312046D4F80C2184F86D
:10319800FF809847D4F8283101210133C4F8283139
:1031A8000023E3E7914F1121F26801F045FD5B250B
:1031B8004FF00008D4F8001107F104090BE00B46A2
:1031C8000131B945C4F80011E55484F8045100F000
:1031D800818617F8015FFF29F1D1D4F8083120461C
:1031E800D4F80C2184F8FF809847D4F828310121BD
:1031F8000133C4F828310023E3E7F168FDF70AFA40
:103208004FF0000810B901F010BC9046037808F19F
:1032180001022F2B41F01280C368002B01F00E80B1
:1032280000690028F1D1C246D6F80C90904603E018
:1032380001354545BFF6AEAC4A4611212046C4F8D3
:10324800245101F0F9FCAA45F2DD694E2C27D4F887
:10325800001106F1010B0AE00B460131B345C4F831
:103268000011E75484F80471E2D016F8017FFF29B1
:10327800F2D14FF00002D4F8083184F8FF2020463C
:10328800D4F80C219847D4F8283101210133C4F827
:1032980028310023E2E7574F6E254FF00008D0F899
:1032A800001107F119090BE00B460131B945C4F8C3
:1032B8000011E55484F804513FF48EAC17F8015F0F
:1032C800FF29F1D1D4F808312046D4F80C2184F82C
:1032D800FF809847D4F8283101210133C4F82831F8
:1032E8000023E3E7444F74254FF00008D0F800119D
:1032F80007F115090BE00B460131B945C4F8001177
:10330800E55484F804513FF467AC17F8015FFF29CE
:10331800F1D1D4F808312046D4F80C2184F8FF8084
:103328009847D4F8283101210133C4F82831002303
:10333800E3E7324F7B254FF00008D0F8001107F182
:103348000D090BE00B4601314F45C4F80011E55457
:1033580084F8045100F0318617F8015FFF29F1D194
:10336800D4F808312046D4F80C2184F8FF80984717
:10337800D4F8283101210133C4F828310023E3E7C8
:103388001F4F76254FF00008D0F8001107F11009FB
:103398000BE00B460131B945C4F80011E55484F837
:1033A80004513FF419AC17F8015FFF29F1D1D4F8A3
:1033B80008312046D4F80C2184F8FF809847D4F8C7
:1033C800283101210133C4F828310023E3E70D4FE8
:1033D8006E254FF00008D0F8001107F114091FE01E
:1033E8005023010840230108242301085022010822
:1033F800F8230108C4230108C8230108C4240108CC
:10340800102301080C2301080B4601314F45C4F86D
:103418000011E55484F804513FF4DEAB17F8015F5E
:10342800FF29F1D1D4F808312046D4F80C2184F8CA
:10343800FF809847D4F8283101210133C4F8283196
:103448000023E3E79A4F74254FF00008D0F80011E5
:1034580007F10F090BE00B460131B945C4F800111B
:10346800E55484F804513FF4B7AB17F8015FFF291E
:10347800F1D1D4F808312046D4F80C2184F8FF8023
:103488009847D4F8283101210133C4F828310023A2
:10349800E3E7884F74254FF00008D0F8001107F1D2
:1034A80011090BE00B460131B945C4F80011E55488
:1034B80084F804513FF490AB17F8015FFF29F1D16C
:1034C800D4F808312046D4F80C2184F8FF809847B6
:1034D800D4F8283101210133C4F828310023E3E767
:1034E800754F74254FF00008D0F8001107F10C094A
:1034F8000BE00B460131B945C4F80011E55484F8D6
:1035080004513FF469AB17F8015FFF29F1D1D4F8F2
:1035180008312046D4F80C2184F8FF809847D4F865
:10352800283101210133C4F828310023E3E7D0F81A
:103538000011357BFF2901F087804B1CC4F800314E
:10354800655484F80451FFF725BB5C4F1121F268DC
:1035580001F072FB20254FF00008D4F8001107F1A4
:1035680007090BE00B460131B945C4F80011E554D1
:1035780084F8045100F0AE8417F8015FFF29F1D1F7
:10358800D4F808312046D4F80C2184F8FF809847F5
:10359800D4F8283101210133C4F828310023E3E7A6
:1035A8000023D0F814C10493D0F810310DF10808A5
:1035B800E146CDF808C0C0F8148103960593BCF124
:1035C800000F01F0E68201276546BE46B44646462E
:1035D80018E0AB68A3B9032F3FF6D9AA12AB03EBE7
:1035E800071BABF1400A95E80F008AE80F004BF87B
:1035F800406C08EB0716C4F814610137C5F808E0F9
:103608002D6825B16B681B78193B022BE1D9112174
:103618002046DCF81020664601F00EFB049BC4F837
:103628001491002B7FF4B6AA012F0CD008EB0718D1
:1036380058F80C2C11212046013F01F02BFB012FDB
:10364800A8F11008F4D1324611212046D4F81431DB
:1036580002F058F8FFF79EBAD6E90353002B3FF45F
:1036680099AA2B444FF00008D0F80011013D5F1EC5
:1036780009E00B460131AF42C4F80011E65484F862
:1036880004613FF487AAFF2915F8016FF1D1D4F836
:103698000831D4F80C21204684F8FF80984701218E
:1036A800D4F8282100230A44C4F82821E3E700BFFE
:1036B800F8220108E4220108D4220108D4240108D0
:1036C80033691B78392B7FF462AAF268D3681B68C8
:1036D8005978632901F0038132461121204602F00E
:1036E800EDFB00287FF456AAF3681A78322A01F015
:1036F800B281DB681B681A78632A41F0ED805A783A
:103708006C2A41F0E9809B78002B41F0E580336911
:10371800DA681178032901F0238211212046DA683A
:1037280002F05EFBF268D3681B681978692941F0DA
:103738000E815878782841F00A819878002841F05D
:10374800068120465B21FCF727FF336920461121BB
:103758001A6901F071FA5D212046FCF71DFFF36834
:103768001A78322A7FF416AADB689A68012A7FF44D
:1037780011AA5B681B783E2B7FF40CAA29212046EE
:1037880013B0BDE8F04FFCF707BFF768002F40F013
:10379800B285CD4D7426D0F8001105F103080BE071
:1037A8000B460131A845C4F80011E65484F80461B9
:1037B8003FF4F0A915F8016FFF29F1D1D4F80831C9
:1037C8002046D4F80C2184F8FF709847D4F82831A3
:1037D80001210133C4F828310023E3E7BB4F6825F2
:1037E8004FF00008D0F8001107F110090BE00B4664
:1037F8000131B945C4F80011E55484F804513FF487
:10380800EBA917F8015FFF29F1D1D4F80831204658
:10381800D4F80C2184F8FF809847D4F82831012186
:103828000133C4F828310023E3E7A94F72254FF08C
:103838000008D0F8001107F114090BE00B4601311C
:10384800B945C4F80011E55484F8045100F089839F
:1038580017F8015FFF29F1D1D4F808312046D4F8D0
:103868000C2184F8FF809847D4F8283101210133CE
:10387800C4F828310023E3E7964F54254FF0000899
:10388800D0F8001107F118090BE00B460131B945D2
:10389800C4F80011E55484F804513FF49DA917F8C1
:1038A800015FFF29F1D1D4F808312046D4F80C2162
:1038B80084F8FF809847D4F8283101210133C4F8EF
:1038C80028310023E3E7844F54254FF00008D0F84F
:1038D800001107F115090BE00B4601314F45C4F8FB
:1038E8000011E55484F804513FF476A917F8015FF4
:1038F800FF29F1D1D4F808312046D4F80C2184F8F6
:10390800FF809847D4F8283101210133C4F82831C1
:103918000023E3E70023D0F84871D0F81481F26857
:103928001121C0F81431C0F8486101F085F994F804
:1039380004313C2B00F02C87D4F80011FF2900F04B
:1039480017874B1CC4F800313C23635484F80431B6
:1039580011212046326901F06FF994F804313E2BA9
:1039680000F00087D4F80011FF2900F0EB864B1C0B
:10397800C4F800313E23635484F80431C4F8148138
:10398800C4F84871FFF706B9B6F91230002B40F0B9
:103998002986F268514BD168994200F05D85112162
:1039A800204601F049F9D4F80031FF2B01F02B80B3
:1039B8002022591CC4F80011E25484F80421B6F9F5
:1039C8001080B8F1000F40F07284454E5F25771DD6
:1039D8000BE00B460131B742C4F80011E55484F8F6
:1039E80004513FF4D7A816F8015FFF29F1D1D4F8A4
:1039F80008312046D4F80C2184F8FF809847D4F881
:103A0800283101210133C4F828310023E3E7D0F835
:103A18002031002B00F0D484324D61274FF000088C
:103A2800D0F8001105F104090BE00B460131A94556
:103A3800C4F80011E75484F8047100F0D98415F82B
:103A4800017FFF29F1D1D4F808312046D4F80C21A0
:103A580084F8FF809847D4F8283101210133C4F84D
:103A680028310023E3E7204F6A254FF00008D0F8FB
:103A7800001107F10D090BE00B460131B945C4F8F7
:103A88000011E55484F804513FF4A6A817F8015F23
:103A9800FF29F1D1D4F808312046D4F80C2184F854
:103AA800FF809847D4F8283101210133C4F8283120
:103AB8000023E3E70D4F67254FF00008D0F8001109
:103AC80007F11C0920E000BF64240108B0230108A5
:103AD800982301087C23010864230108841601083F
:103AE800E82301087022010844240108742401080D
:103AF8000B460131B945C4F80011E55484F8045166
:103B08003FF46AA817F8015FFF29F1D1D4F808310A
:103B18002046D4F80C2184F8FF809847D4F828313F
:103B280001210133C4F828310023E3E7D44F642589
:103B38004FF00008D0F8001107F109090BE00B4617
:103B48000131B945C4F80011E55484F8045100F076
:103B5800228317F8015FFF29F1D1D4F808312046F4
:103B6800D4F80C2184F8FF809847D4F82831012133
:103B78000133C4F828310023E3E7C24F7B254FF017
:103B88000008D0F8001107F107090BE00B460131D6
:103B9800B945C4F80011E55484F8045100F08D8249
:103BA80017F8015FFF29F1D1D4F808312046D4F87D
:103BB8000C2184F8FF809847D4F82831012101337B
:103BC800C4F828310023E3E7F268AF4902A808F0F7
:103BD80091FB02A808F0B0FB00283EF4DBAF02AD71
:103BE8004FF00008D4F800112F1809E00B460131F6
:103BF800AF42C4F80011E65484F804613EF4CAAF39
:103C0800FF2915F8016BF1D1D4F80831D4F80C214B
:103C1800204684F8FF8098470121D4F82821002302
:103C28000A44C4F82821E3E7984F6F254FF00008AD
:103C3800D0F8001107F108090BE00B4601314F4598
:103C4800C4F80011E55484F8045100F09C8217F878
:103C5800015FFF29F1D1D4F808312046D4F80C21AE
:103C680084F8FF809847D4F8283101210133C4F83B
:103C780028310023E3E7854F6F254FF00008D0F87F
:103C8800001107F108090BE00B4601314F45C4F854
:103C98000011E55484F804513FF486A817F8015F31
:103CA800FF29F1D1D4F808312046D4F80C2184F842
:103CB800FF809847D4F8283101210133C4F828310E
:103CC8000023E3E7F768724E6F254FF00009D7F835
:103CD8000880D0F8001106F1070A0BE00B46013105
:103CE800B245C4F80011E55484F8045100F0B181DC
:103CF80016F8015FFF29F1D1D4F808312046D4F82D
:103D08000C2184F8FF909847D4F828310121013319
:103D1800C4F828310023E3E7D6E9032612B11121BC
:103D280000F08AFFD4F80031FF2B00F0E6845A1C1B
:103D38007B25C4F800211121E5543246204684F839
:103D4800045100F079FFD4F80011FF2900F06881D0
:103D58004A1C7D23C4F80021635484F80431FEF71B
:103D680019BFD6E903753B78322B00F08883342BD2
:103D780040F05487D0F80031FF2B00F0BE865A1C63
:103D8800C4F800212822E25484F804211121204695
:103D9800FA6800F051FFD4F80011FF2900F09C8662
:103DA80029234A1CC4F80021635484F80431FFF71E
:103DB800BDB81121F26813B0BDE8F04F01F02EBE76
:103DC800344F67254FF00008D0F8001107F11B09A0
:103DD8000BE00B460131B945C4F80011E55484F8ED
:103DE80004513EF4F9AE17F8015FFF29F1D1D4F878
:103DF80008312046D4F80C2184F8FF809847D4F87D
:103E0800283101210133C4F828310023E3E7F2689F
:103E1800D2E90053002B3EF4BDAE2B444FF000080E
:103E2800D0F80011013D5F1E09E00B460131AF4299
:103E3800C4F80011E65484F804613EF4ABAEFF29DF
:103E480015F8016FF1D1D4F80831D4F80C212046C7
:103E580084F8FF8098470121D4F8282100230A44D8
:103E6800C4F82821E3E7D6E90353002B3EF492AEC9
:103E78002B444FF00008D0F80011013D5F1E15E0FB
:103E880054240108B4240108E82101080824010881
:103E9800FC230108942401080B460131AF42C4F801
:103EA8000011E65484F804613EF474AEFF2915F855
:103EB800016FF1D1D4F80831D4F80C21204684F8E8
:103EC800FF8098470121D4F8282100230A44C4F828
:103ED8002821E3E711212046326900F0ADFED4F82D
:103EE8000011FF2900F0BC824A1C5D23C4F80021A0
:103EF800635484F80431FEF74DBEBEF1010F40F261
:103F08008F81C4F81421FEF7C3BFD14F1121204679
:103F1800F26800F091FE2D254FF00008D4F800114A
:103F280007F103090BE00B4601314F45C4F80011B6
:103F3800E55484F804513EF437AF17F8015FFF29C0
:103F4800F1D1D4F808312046D4F80C2184F8FF8048
:103F58009847D4F8283101210133C4F828310023C7
:103F6800E3E7BC4F11212046326900F065FE2025A9
:103F78004FF00008D4F8001107F104090BE00B46D4
:103F880001314F45C4F80011E55484F804513EF45A
:103F980023AE17F8015FFF29F1D1D4F80831204684
:103FA800D4F80C2184F8FF809847D4F828310121EF
:103FB8000133C4F828310023E3E7F268A649013247
:103FC80002A808F097F902A808F0B6F918B302ADEC
:103FD8004FF00008D4F800112F1808E00B46013103
:103FE800AF42C4F80011E65484F8046115D0FF29E3
:103FF80015F8016BF2D1D4F80831D4F80C21204619
:1040080084F8FF8098470121D4F8282100230A4426
:10401800C4F82821E4E7D4F80011FF297FF498AE0A
:10402800D4E942320025204684F8FF5098470122FF
:10403800D4F8283129461344C4F8283189E6376969
:104048003B78472B00F020833A4611212046FEF7A3
:10405800C6BD7D682B78613B192B40F2CF8208F1F1
:10406800FF37EB5D202B18BF4746002F3EF492AD7B
:10407800013D4FF00008D4F800112F4409E00B4629
:104088000131AF42C4F80011E65484F804613EF4EB
:1040980081ADFF2915F8016FF1D1D4F80831D4F8B2
:1040A8000C21204684F8FF8098470121D4F8282164
:1040B80000230A44C4F82821E3E7D4F82031112169
:1040C8000133F2682046C4F8203100F0B5FDD4F879
:1040D8002031624F013B29254FF00008D4F8001128
:1040E800C4F8203107F101090AE00B460131B9454E
:1040F800C4F80011E55484F8045113D017F8015F8F
:10410800FF29F2D1D4F808312046D4F80C2184F8DC
:10411800FF809847D4F8283101210133C4F82831A9
:104128000023E4E732694C49013202A808F0E2F8BA
:1041380002A808F001F900283FF46DAF02AD4FF076
:104148000008D4F800112F1809E00B460131AF42DE
:10415800C4F80011E65484F804613FF45EAFFF2907
:1041680015F8016BF1D1D4F80831D4F80C212046A8
:1041780084F8FF8098470121D4F8282100230A44B5
:10418800C4F82821E3E732461121204613B0BDE8E0
:10419800F04F01F09BBB11212046F26800F04CFD66
:1041A800D4F80011FF2900F060824A1C2923C4F8C2
:1041B8000021635484F80431FEF7ECBC3246112127
:1041C800204600F067FDFEF7FFBC32690D46204629
:1041D8001121D4F8286100F02FFDD4F82831B3421A
:1041E8007EF4D8ACD4F80031AB427EF4D3AC023DB7
:1041F800C4F80051FEF7CEBCD4F80031FF2B00F014
:10420800B583581CC4F80001112104F80390204616
:1042180055F80C2C84F8049100F03CFDFEF74DBED7
:10422800D9F80C90B9F1000F3EF4AFAC042D02F1AF
:10423800100200F0EE812846FEF7F3BDD6F80C9088
:10424800B8F1000F3EF4A6AC08F1FF3AFEF7F4BF50
:10425800CC22010890230108E8210108C0240108A4
:1042680033782F2B7EF401AD0E46D4F814E1FEF717
:10427800FEBC072D7EF475AD3169087800287EF400
:1042880070AD086901287EF46CAD3D2B7EF469ADF4
:10429800CB681B78302B00F0BD84312B7EF461ADE8
:1042A8002046B74913B0BDE8F04FFCF7FBB9B54D50
:1042B8005F264FF000086F1D0BE00B460131AF423F
:1042C800C4F80011E65484F804613EF463AC15F8B0
:1042D800016FFF29F1D1D4F808312046D4F80C2118
:1042E80084F8FF809847D4F8283101210133C4F8B5
:1042F80028310023E3E7A44D7B264FF00008D0F8CF
:10430800001105F105090AE00B460131A945C4F879
:104318000011E65484F8046113D015F8016FFF29E1
:10432800F2D1D4F808312046D4F80C2184F8FF8063
:104338009847D4F8283101210133C4F828310023E3
:10434800E4E73A46914902A807F0D4FF02A807F02B
:10435800F3FF18B302AD4FF00008D4F800112F187E
:1043680008E00B460131AF42C4F80011E65484F866
:10437800046115D0FF2915F8016BF2D1D4F8083182
:10438800D4F80C21204684F8FF8098470121D4F8FE
:10439800282100230A44C4F82821E4E7D4F80011AE
:1043A800FF2900F04A837D234A1CC4F80021635486
:1043B80084F80431FEF7EEBB00250B78FEF74BBC02
:1043C8003146FCF70BF9024600283EF4E0AB0378CF
:1043D8002F2B00F00B83D4F8105111212B682046A5
:1043E800C4F8103100F028FCC4F81051FEF7D2BB15
:1043F800F2686649013202A807F07CFF02A807F0BC
:104408009BFF00283EF4C6AB02AD4FF00008D4F87D
:1044180000112F1809E00B460131BD42C4F8001104
:10442800E65484F804613EF4B5ABFF2915F8016B36
:10443800F1D1D4F80831D4F80C21204684F8FF8053
:1044480098470121D4F8282100230A44C4F82821D8
:10445800E3E70025FEF785BCD4F80011FFF7AFBAF3
:104468000025D4E94232204684F8FF5098470122BB
:10447800D4F8283129461344C4F8283135E5FB68B7
:104488001E683378612B40F0C9807278642A40F046
:10449800C580B278002A40F0C1802A78032A00F04B
:1044A8005483392A00F06B83732B1DD172785A2AF2
:1044B80043D196F80280B8F1000F3ED12946204634
:1044C800FCF7A8F830B908E0C36833B1006908F10F
:1044D800010810B103782F2BF6D04146204613B0BF
:1044E800BDE8F04FFCF744B93A461121204601F0E7
:1044F80095FA3378672B09D17278732A06D1B27886
:1045080022B92A4611212046FEF769BB732B7EF497
:104518000DAD7378742B7EF409ADB378002B7EF45F
:1045280005AD28212046FCF737F811212A462046F8
:1045380000F082FB2921FFF722B9732BD4D17378BD
:10454800502BD1D1B378002BCED11E4604E00136D2
:104558002D69002D00F019822B782F2B40F0158241
:10456800EB68002B00F011821A784B2AEFD1204615
:10457800D968FCF74FF8024690B100220DE000BF61
:104588003C240108F02301086C240108E8210108F3
:10459800C16829B10069013210B101782F29F7D01B
:1045A8001644D5E7012B3EF673AC042D3EF4EFAA72
:1045B800864600F1100B0FC88BE80F00CEE9019A70
:1045C800D9F80C9058460135CEF810E0CEF80CC05A
:1045D800C4F814B1B9F1000F3EF4D9AA99F8001043
:1045E800FEF744BCD049FCF75DF8FFF7D2B9324674
:1045F8001121204600F04EFBFEF71FBBFF2900F0FB
:1046080053824B1CC4F800312023635484F80431CE
:1046180025E50122C4E94532FEF7BCBA2A7840E70D
:104628000D46FEF724BB002767552946D4E94232D8
:1046380020469847D4F828313D460133C4F8007124
:10464800C4F82831FEF72EBB0026D0F80831D0F880
:104658000C2180F8FF6098470123D4F828213146BF
:104668001A44C4F82821FEF769BF0025D4E942326C
:10467800204684F8FF5098470122D4F8283129466B
:104688001344C4F8283191E52046A849FCF70AF8F4
:104698003A69A749013202A807F02CFE02A807F0E0
:1046A8004BFE814618B302AD4FF00008D4F8001154
:1046B800A94408E00B460131A945C4F80011E654A5
:1046C80084F8046113D0FF2915F8016BF2D1D4F8EE
:1046D8000831D4F80C21204684F8FF80984701213E
:1046E800D4F8282100230A44C4F82821E4E7204606
:1046F8009049FBF7D7FFFF68A6E400251946D4F8D0
:104708000C21D4F80831204684F8FF50984701223C
:10471800D4F828112B461144C4F82811FFF708BB18
:1047280000251946D0F80C21D0F8083180F8FF5040
:1047380098470121D4F828212B460A44C4F8282197
:10474800FEF78CBC0025D4E94232204684F8FF509D
:104758009847D4F8283129460133C4F82831012371
:10476800FFF706B920212046FBF716FFFFF7FAB836
:104778000025D4E94232204684F8FF5098470123A7
:10478800D4F8282129461A44C4F82821FFF7DAB8B2
:1047980020212046FBF700FFFFF7CEB85B2120461B
:1047A800FBF7FAFE11212046326900F045FA5D2137
:1047B800FEF7E5BF2D212046FBF7EEFEFEF7F1BA26
:1047C8000027D4E94232204684F8FF709847D4F88D
:1047D800283139460133C4F828310123FEF7D7BA06
:1047E8000027D4E94232204684F8FF709847D4F86D
:1047F800283139460133C4F82831F2680123FEF71D
:10480800B6BA3169097800297EF4ABAA3E2B00F0CC
:10481800FA81112120463269023D00F00DFA042D7B
:104828003EF6B8A9DFE805F00F0C0906030020469C
:10483800414937E52046414934E52046404931E5BC
:104848006C21FEF79CBF7521FEF799BFD0F834C1E3
:10485800BCF1000F40F3A981D0F830E12B46704637
:1048680004E0634500F1080000F09F815EF8332002
:1048780001339142F5D1D4F82CC16346BCF1000F45
:1048880004D1F9E05B68002B00F0F6801A688A42D0
:1048980003D0B242F6D19C45F4D02046FBF79EFEE9
:1048A800014600283EF473A90B782F2B7EF4D3A978
:1048B800D4F82431002BFFF6D3AC08461946FBF791
:1048C80005FE014600287FF478AD002D3EF45FA96F
:1048D800C4F81071FEF75BB93369FEF71EBF1B7889
:1048E800A3F16301012903D9723B012B3EF6F4AE13
:1048F8001121204601F092F83C212046FBF74CFE9E
:1049080033691121DA68204600F096F920460D49EE
:10491800FBF7C8FE3369112120461A6900F08CF9AB
:104928002921FEF72CBF00BFE02301085C22010803
:10493800E82101086C220108302401082C24010810
:104948002824010814240108CA68FEF727B9632936
:1049580000F0B9801121204601F060F83369112177
:1049680020461A6901F03CFAFEF7F9BE1946D4E967
:104978004232204684F8FF6098470120D4F8282165
:1049880033460244C4F828213CE43246A64902A82A
:1049980007F0B0FC02A807F0CFFC074600283EF459
:1049A800F9A802AD4FF00008D4F800112F4409E02F
:1049B8000B460131AF42C4F80011E65484F8046193
:1049C8003EF4E8A8FF2915F8016BF1D1D4F80831B5
:1049D800D4F80C21204684F8FF8098470121D4F8A8
:1049E800282100230A44C4F82821E3E7D4F8241135
:1049F8000029FFF6F0ACFBF769FD024600287FF4BA
:104A0800EAACFEF7C4B800251946D4F80C21D4F84E
:104A18000831204684F8FF509847D4F828212B46BF
:104A28000132C4F82821FEF7C3BF11212046F268DD
:104A380001F0D6F920467D4934E40025D4E9423214
:104A4800204684F8FF509847D4F828312946013386
:104A5800C4F82831A7E4DA68916801297EF449AEE0
:104A6800526812783E2A7EF444AE28212046FBF78D
:104A780093FDF368FEF73DBE4368D4F810712046F5
:104A8800C4F81031FBF7AAFD014600283FF420AF17
:104A9800012509E7D9F80C90B9F1000F3EF477A881
:104AA80099F80010FEF7DEB90025D4E9423284F8FF
:104AB800FF5020469847D4F82831294601337D68AD
:104AC800C4F828319DE559786C297FF443AF9B7869
:104AD800002B3FF443AF3DE70026D4F808312046C9
:104AE800D4F80C2184F8FF609847D4F8283131466F
:104AF8000133C4F82831FFF753B900261946D0E925
:104B0800423280F8FF609847D4F8282133460132B2
:104B1800C4F82821FFF733B920464549FBF7C2FD01
:104B2800F36843B111212046324601F059F920219A
:104B38002046FBF731FD3A461121204600F07CF86B
:104B4800002D7EF4F3A9FEF725B8EA68117801294B
:104B58007FF4AAAC29690978292908BF1546A3E476
:104B6800136911211B782046292B18BF0123D2680D
:104B780018BFC4F8183101F033F9FEF7D3BD11217D
:104B88002046EA6801F02CF93A4611212046FFF741
:104B980012B91121326900F04FF8049BC4F814913E
:104BA800002B3EF450ADFDF7F5BFD4F8383163451E
:104BB8007DF7EDAFD4F83021D4F810E102EBCC0347
:104BC8000CF10100C4F83401043342F83C10BEF182
:104BD800000F1CD0D4E9502C11E0D4F83C01DEF8C9
:104BE800048000EBC2000132C4F84021C0F8048000
:104BF8001860DEF800E00346BEF1000F07D06245FA
:104C0800EBDBFDF7C4BF2D21FBF7C6FC01E6002254
:104C18001A6042E620460749FFF744BB3A4611218D
:104C280000F0FCFEFEF782B9E821010860240108C3
:104C3800202401083424010830B5054683B01AB38E
:104C480053681446012B1FDCD0F81C11B1F5806F96
:104C58001ADC013353600131D0F82C31C0F81C1133
:104C6800C0F82CD11121CDE90023FDF72DFF626892
:104C7800D5F81C310199013A013BC5F82C11626045
:104C8800C5F81C3103B030BD0123C5F8183103B095
:104C980030BD00BF2DE9F84313781546033B0446A1
:104CA8004D2B4FD8DFE813F01A014E004E004E008E
:104CB8004E004E004E004E004E004E004E004E007C
:104CC8004E004E004E004E004E004E004E004E006C
:104CD8004E004E0053007A00A10053007A00A10054
:104CE800EE00FB00080199021F012D015201780115
:104CF8004E004E004E004E009E014E00CE014E006A
:104D08004E004E004E004E004E004E004E004E002B
:104D18004E004E004E004E004E004E004E004E001B
:104D28004E004E004E004E004E004E004E004E000B
:104D38004E004E004E004E004E004E00F5014E0053
:104D48003002C6002A46BDE8F843112174E7D54D64
:104D580020264FF00008D0F8001105F108070BE0F5
:104D68000B460131AF42C4F80011E65484F80461DF
:104D780000F0C58015F8016FFF29F1D1D4F808318A
:104D88002046D4F80C2184F8FF809847D4F82831BD
:104D980001210133C4F828310023E3E7C24D20265E
:104DA8004FF00008D0F8001105F108070BE00B469A
:104DB8000131AF42C4F80011E65484F8046100F0F0
:104DC8009E8015F8016FFF29F1D1D4F808312046EB
:104DD800D4F80C2184F8FF809847D4F828310121B1
:104DE8000133C4F828310023E3E7B04D20264FF003
:104DF8000008D0F800116F1D0AE00B460131BD42D2
:104E0800C4F80011E65484F8046178D015F8016FED
:104E1800FF29F2D1D4F808312046D4F80C2184F8BF
:104E2800FF809847D4F8283101210133C4F828318C
:104E38000023E4E79E4E20274FF00008D0F8003109
:104E480006F105090BE01A460133B145C4F80031F3
:104E5800A75484F8047100F07E8116F8017FFF2BB7
:104E6800F1D11946D4F80C21D4F80831204684F839
:104E7800FF809847D4F8283100220133C4F828313C
:104E88000123E2E7D0F80031FF2B00F0E581202272
:104E9800591CC0F80011C25480F8042125E0D0F84C
:104EA8000031FF2B00F0B881591C2022C4F80011F2
:104EB800E25484F8042126E0D0F80031FF2B00F0FA
:104EC800BA81591C2022C4F80011E25484F8042144
:104ED80020462A691121BDE8F843ADE6EA681121A8
:104EE800BDE8F843A8E6D0F80011FF2900F0C48116
:104EF8004A1C2623C4F80021635484F80431BDE811
:104F0800F883D0F800116B4D26264FF000086F1C6F
:104F18000AE00B460131BD42C4F80011E65484F89A
:104F28000461ECD015F8016FFF29F2D1D4F80831EB
:104F38002046D4F80C2184F8FF809847D4F828310B
:104F480001210133C4F828310023E4E75A4D202613
:104F58004FF00008D0F8001105F108070AE00B46E9
:104F68000131BD42C4F80011E65484F80461C6D08A
:104F780015F8016FFF29F2D1D4F808312046D4F88A
:104F88000C2184F8FF809847D4F828310121013397
:104F9800C4F828310023E4E7484D20264FF00008E4
:104FA800D0F8001105F10A070AE00B460131BD42AD
:104FB800C4F80011E65484F80461A0D015F8016F14
:104FC800FF29F2D1D4F808312046D4F80C2184F80E
:104FD800FF809847D4F8283101210133C4F82831DB
:104FE8000023E4E790F80431282B40F0EA80EA68CF
:104FF800334D11212046FFF71FFE3A260027D4F82B
:10500800001105F102080BE00B460131A845C4F870
:105018000011E65484F804613FF471AF15F8016F8C
:10502800FF29F1D1D4F808312046D4F80C2184F8AE
:10503800FF709847D4F8283101210133C4F828318A
:105048000023E3E71F4E20274FF00008D0F8001197
:1050580006F109090BE00B460131B145C4F800110E
:10506800E75484F8047100F09A8016F8017FFF294C
:10507800F1D1D4F808312046D4F80C2184F8FF8007
:105088009847D4F8283101210133C4F82831002386
:10509800E3E70D4D20264FF00008D0F8001105F188
:1050A80010071FE0E0240108EC240108F824010897
:1050B80020250108282501082C2501083825010884
:1050C8004425010848250108002501080B4601313F
:1050D800AF42C4F80011E65484F804613FF40FAFFE
:1050E80015F8016FFF29F1D1D4F808312046D4F81A
:1050F8000C2184F8FF809847D4F828310121013326
:10510800C4F828310023E3E7724E20274FF0000847
:10511800D0F8003106F108090AE01A4601334E4575
:10512800C4F80031A75484F8047114D016F8017F2C
:10513800FF2BF2D11946D4F80C21D4F808312046B7
:1051480084F8FF809847D4F8283100220133C4F846
:1051580028310123E3E72A69002A3FF4D0AEFF2B68
:1051680047D0591C2825C4F8001120461121E554C0
:1051780084F80451FFF760FDD4F80011FF2917D116
:10518800D4E942320025204684F8FF50984701228E
:10519800D4F8283129461344C4F8283109E01121EC
:1051A8002046EA68FFF748FDD4F80011FF29E7D048
:1051B8004A1C2923C4F80021635484F80431BDE84B
:1051C800F883D0F80011FF2965D04A1C2023C4F8C1
:1051D8000021635484F8043109E7D0F80011FF294D
:1051E80069D04A1C2A23C4F80021635484F8043186
:1051F80085E6002619462046D4F80831D4F80C2153
:1052080084F8FF6098470121D4F828012A690844E6
:105218003346C4F82801A5E700251946D0E94232EB
:1052280080F8FF5098470121D4F828212B460A44DA
:10523800C4F8282139E600261946D0F80C21D0F800
:10524800083180F8FF6098470121D4F828213346B7
:105258000A44C4F8282135E600251946D0E9423227
:1052680080F8FF50984701212022D4F82831227075
:105278000B44C4F828313BE60025D4E942322046E5
:1052880084F8FF5098470122D4F82831294613445E
:10529800C4F828312DE60026D0F80831D0F80C21C2
:1052A80080F8FF6098470122D4F82831314613442A
:1052B800C4F828318AE70025D0E9423280F8FF5047
:1052C80098470122D4F8283129461344C4F82831D4
:1052D80088E700BF142501082DE9F0470446174662
:1052E8001D46002B64D09A68002A61D15A6811784B
:1052F8001939122959D8DFE801F00A0A0A5858580A
:1053080058580A8080800A0A585858580A0094F851
:105318000431202B79D1D4F80061FF2E00F083806E
:10532800731C4FF028094FF0000AC4F8003104F844
:1053380006902A46D4F8148111212046534684F851
:105348000491C4F814A100F0B9F8D4F80021FF2A98
:1053580000F08A802923511CFF29C4F80011A354A6
:1053680084F8043132D028234E1CC4F800616354F9
:1053780084F804313A692AB111212046FFF75CFC10
:10538800D4F80061FF2E5FD0731C2927C4F80031C0
:105398002A46A75501231121204684F8047100F0FC
:1053A8008DF8C4F81481BDE8F0871B68002B9AD1EA
:1053B80000231121D4F814812A462046C4F8143158
:1053C80000F07CF8D4F80011FF29CCD10023204646
:1053D80084F8FF30D4E942329847D4F828310126BE
:1053E8000133C4F828312823237084F804313A693A
:1053F800C4F80061002ABFD1C6E794F8043103F06D
:10540800FD02282A87D0202B85D0D4F80011FF2947
:1054180043D020234E1CFF2EC4F80061635484F847
:1054280004317FF47DAFD4E942324FF000083146B1
:10543800204684F8FF809847D4F82831464601333F
:10544800C4F8283101236CE70027D4E942323146F9
:10545800204684F8FF709847D4F828313E46013337
:10546800C4F82831012390E71146D4E94232204696
:1054780084F8FFA0984742F629020226D4F828317A
:1054880084F8049122803A690133C4F82831C4F8B9
:105498000061002A7FF470AF76E70026D4E9423233
:1054A80084F8FF60204698472022D4F82831012646
:1054B8000133C4F82831227032E700BF002A00F017
:1054C800C2802DE9F04F054614461E46012789B0D3
:1054D800D5F81821CAB9A2680ABB62681178BEB1AA
:1054E800E3682929D5F81081A760C5F8103124D0C0
:1054F8002A292CD0022934D011212846FFF7CAFBCB
:105508002468C5F81081002CE2D109B0BDE8F08FFD
:105518004D2904D007D8A1F11C03042BE0D8246836
:10552800002CD5D1F1E74F390129F8D9E368D5F82E
:105538001081A760C5F81031DEE7112128462368DD
:10554800FFF7CAFEC5F8108109B0BDE8F08F112138
:105558002846236800F0D6F8C5F8108109B0BDE8E0
:10556800F08F4FF00009D5F814B1624E1121D268BE
:105578002846C5F81491FFF75FFB3A27D5F80011C4
:1055880006F1010AC5F814B10AE00B460131564587
:10559800C5F80011EF5485F8047113D016F8017F8F
:1055A800FF29F2D1D5F808312846D5F80C2185F81D
:1055B800FF909847D5F8283101210133C5F82831E3
:1055C8000023E4E763681C692378472B17D04D2B29
:1055D800A3F14F02A3F11C010ED00BD804290BD95B
:1055E800224611212846FFF727FBC5F8108109B08C
:1055F800BDE8F08F012AF3D8E4682378E7E73E4F47
:105608007B264FF0000907F10C0A0AE00B4601312E
:105618005745C5F80011EE5485F8046114D017F801
:10562800016FFF29F2D1D5F808312846D5F80C21A9
:1056380085F8FF909847D5F8283101210133C5F83E
:1056480028310023E4E7704722692C49013201A878
:1056580006F050FE01A806F06FFE824618B301AEB0
:105668004FF00009D5F80011B24408E00B460131AB
:105678005645C5F80011EF5485F8047115D0FF2977
:1056880016F8017BF2D1D5F80831D5F80C21284657
:1056980085F8FF9098470121D5F8282100230A446E
:1056A800C5F82821E4E7D5F80011154F7D264FF0FD
:1056B800000907F1020A0AE00B460131BA45C5F8AC
:1056C8000011EE5485F8046196D017F8016FFF2990
:1056D800F2D1D5F808312846D5F80C2185F8FF9085
:1056E8009847D5F8283101210133C5F8283100231E
:1056F800E4E700BF582201085C220108E8210108FC
:105708006C2201082DE9F0470446164653B11F469E
:105718009D687DB31B68002BFAD13A4611212046BB
:10572800FFF7CCFED4F80031FF2B00F09D8020223B
:10573800591CFF29C4F80011E25484F8042127D029
:105748005B224B1CC4F80031625484F80421F268CF
:105758002AB111212046FFF76FFAD4F80031FF2B48
:105768002FD0591C5D22C4F80011E25484F804219A
:10577800BDE8F0875B681B782A2B32D111212B46B4
:105788003A462046FFF79AFED4F80011FF29D7D1F0
:105798000025D4F80831D4F80C21204684F8FF50AD
:1057A80098475B210123D4F8282121701A4484F8F2
:1057B8000411C4F82821F268C4F80031002AC8D1BD
:1057C800CFE700251946D4E94232204684F8FF5035
:1057D80098470121D4F828212B460A44C4F82821E7
:1057E800C0E7DFF8E4804FF02009D4F8001108F191
:1057F800010A0CE00B46D04501F10101C4F8001183
:1058080004F8039084F804911AD018F8019FFF292E
:10581800F0D1D4F808312046D4F80C2184F8FF5090
:105828009847D4F8283101210133C4F828310023DE
:10583800D045C4F8001104F8039084F80491E4D129
:10584800112100233A462046FFF738FED4F800110C
:10585800FF2926D029224B1CFF2BC4F800316254A3
:1058680084F804217FF463AF002519462046D4F854
:105878000831D4F80C2184F8FF50984745F62030B9
:105888005B210223D4F828212080013284F80411F6
:10589800C4F82821F268C4F80031002A7FF459AF0F
:1058A8005FE70025D4F80831D4F80C21204684F8A5
:1058B800FF50984701232921D4F8282121701A4440
:1058C800C4F8282133E700BF5C24010870B5D0F87C
:1058D80048310446154682B02BB1D0F81021019307
:1058E8000092C0F810D1EA68112113782046042BE1
:1058F80009D0FFF7A1F9D4F8483113B1009BC4F8D7
:10590800103102B070BDD268FFF796F9D4F848316B
:1059180013B1009BC4F8103194F804313C2B21D00A
:10592800D4F80031FF2B44D0591C3C22C4F8001194
:10593800E25484F80421EB6811211A692046FFF724
:105948007BF994F804313E2B27D0D4F80011FF29B5
:1059580014D04A1C3E23C4F80021635484F804314F
:1059680002B070BDD4F80011FF2934D020224B1C9E
:10597800C4F80031625484F80421D3E70025D4E93F
:105988004232204684F8FF5098470122D4F8283143
:1059980029461344C4F82831DCE7D4F80031FF2B3A
:1059A8002BD02022591CC4F80011E25484F8042199
:1059B800CDE700261946D4F80C21D4F80831204642
:1059C80084F8FF6098470121D4F8282133460A4417
:1059D800C4F82821A9E70026D4F80831D4F80C2106
:1059E800204684F8FF60984701232021D4F8282115
:1059F80021701A44C4F8282196E700251946D4E9ED
:105A08004232204684F8FF50984701212022D4F8DA
:105A1800283122700B44C4F828319AE711783229CA
:105A280002D01121FFF708B9D3682DE9F041D3E975
:105A3800015767B32F4404464FF00008D0F800110F
:105A4800013D013F09E00B46BD4201F10101C4F8E7
:105A58000011E65484F8046119D0FF2915F8016F84
:105A6800F1D1D4F80831D4F80C21204684F8FF800D
:105A7800984701210023D4F82821BD420A44C4F8DC
:105A88002821C4F80011E65484F80461E5D1BDE882
:105A9800F08100BF2DE9F04FE5B090F80090044682
:105AA800B9F15F0F0D46164600AF00F0F2800822EC
:105AB8002046C34906F06EFC48B9237A2E2B00F025
:105AC800D7805F2B00F0D480242B00F0D1804FF0DA
